{
  "contractName": "MyContract",
  "abi": [
    {
      "anonymous": false,
      "inputs": [
        {
          "indexed": false,
          "name": "addr",
          "type": "address"
        },
        {
          "indexed": false,
          "name": "domainName",
          "type": "string"
        }
      ],
      "name": "reg",
      "type": "event",
      "signature": "0xac07f8935ec1917231323fddd1f4dc70380f6438e069be20425bc8b66e5cd7ed"
    },
    {
      "constant": false,
      "inputs": [
        {
          "name": "addr",
          "type": "address"
        },
        {
          "name": "domainName",
          "type": "string"
        }
      ],
      "name": "register",
      "outputs": [],
      "payable": false,
      "stateMutability": "nonpayable",
      "type": "function",
      "signature": "0x32434a2e"
    },
    {
      "constant": false,
      "inputs": [
        {
          "name": "addr",
          "type": "address"
        },
        {
          "name": "domainName",
          "type": "string"
        },
        {
          "name": "fakeVcode",
          "type": "uint256"
        }
      ],
      "name": "report",
      "outputs": [],
      "payable": false,
      "stateMutability": "nonpayable",
      "type": "function",
      "signature": "0x24a74b9a"
    },
    {
      "constant": false,
      "inputs": [
        {
          "name": "addr",
          "type": "address"
        },
        {
          "name": "domainName",
          "type": "string"
        },
        {
          "name": "vcode",
          "type": "uint256"
        }
      ],
      "name": "verify",
      "outputs": [],
      "payable": false,
      "stateMutability": "nonpayable",
      "type": "function",
      "signature": "0x447cf3ad"
    },
    {
      "constant": false,
      "inputs": [
        {
          "name": "CAs",
          "type": "string"
        }
      ],
      "name": "modifyTrustedCAs",
      "outputs": [],
      "payable": false,
      "stateMutability": "nonpayable",
      "type": "function",
      "signature": "0xe29949b1"
    },
    {
      "constant": true,
      "inputs": [
        {
          "name": "domainName",
          "type": "string"
        }
      ],
      "name": "queryTrustedCAs",
      "outputs": [
        {
          "name": "",
          "type": "string"
        }
      ],
      "payable": false,
      "stateMutability": "view",
      "type": "function",
      "signature": "0x7c8c5bbf"
    },
    {
      "constant": false,
      "inputs": [],
      "name": "Test",
      "outputs": [],
      "payable": false,
      "stateMutability": "nonpayable",
      "type": "function",
      "signature": "0xa163a624"
    }
  ],
  "bytecode": "0x608060405234801561001057600080fd5b50610af5806100206000396000f3fe608060405260043610610078576000357c0100000000000000000000000000000000000000000000000000000000900463ffffffff16806324a74b9a1461007d57806332434a2e1461016f578063447cf3ad146102575780637c8c5bbf14610349578063a163a6241461048a578063e29949b1146104a1575b600080fd5b34801561008957600080fd5b5061016d600480360360608110156100a057600080fd5b81019080803573ffffffffffffffffffffffffffffffffffffffff169060200190929190803590602001906401000000008111156100dd57600080fd5b8201836020820111156100ef57600080fd5b8035906020019184600183028401116401000000008311171561011157600080fd5b91908080601f016020809104026020016040519081016040528093929190818152602001838380828437600081840152601f19601f82011690508083019250505050505050919291929080359060200190929190505050610569565b005b34801561017b57600080fd5b506102556004803603604081101561019257600080fd5b81019080803573ffffffffffffffffffffffffffffffffffffffff169060200190929190803590602001906401000000008111156101cf57600080fd5b8201836020820111156101e157600080fd5b8035906020019184600183028401116401000000008311171561020357600080fd5b91908080601f016020809104026020016040519081016040528093929190818152602001838380828437600081840152601f19601f8201169050808301925050505050505091929192905050506106a2565b005b34801561026357600080fd5b506103476004803603606081101561027a57600080fd5b81019080803573ffffffffffffffffffffffffffffffffffffffff169060200190929190803590602001906401000000008111156102b757600080fd5b8201836020820111156102c957600080fd5b803590602001918460018302840111640100000000831117156102eb57600080fd5b91908080601f016020809104026020016040519081016040528093929190818152602001838380828437600081840152601f19601f82011690508083019250505050505050919291929080359060200190929190505050610776565b005b34801561035557600080fd5b5061040f6004803603602081101561036c57600080fd5b810190808035906020019064010000000081111561038957600080fd5b82018360208201111561039b57600080fd5b803590602001918460018302840111640100000000831117156103bd57600080fd5b91908080601f016020809104026020016040519081016040528093929190818152602001838380828437600081840152601f19601f8201169050808301925050505050505091929192905050506107ad565b6040518080602001828103825283818151815260200191508051906020019080838360005b8381101561044f578082015181840152602081019050610434565b50505050905090810190601f16801561047c5780820380516001836020036101000a031916815260200191505b509250505060405180910390f35b34801561049657600080fd5b5061049f6108bd565b005b3480156104ad57600080fd5b50610567600480360360208110156104c457600080fd5b81019080803590602001906401000000008111156104e157600080fd5b8201836020820111156104f357600080fd5b8035906020019184600183028401116401000000008311171561051557600080fd5b91908080601f016020809104026020016040519081016040528093929190818152602001838380828437600081840152601f19601f8201169050808301925050505050505091929192905050506108bf565b005b60008060008573ffffffffffffffffffffffffffffffffffffffff1673ffffffffffffffffffffffffffffffffffffffff16815260200190815260200160002060050160006101000a81548160ff0219169083151502179055506002600a8115156105d057fe5b04600260003373ffffffffffffffffffffffffffffffffffffffff1673ffffffffffffffffffffffffffffffffffffffff168152602001908152602001600020600082825401925050819055506000600260008573ffffffffffffffffffffffffffffffffffffffff1673ffffffffffffffffffffffffffffffffffffffff16815260200190815260200160002060008282540392505081905550816003808054905081548110151561067f57fe5b90600052602060002001908051906020019061069c929190610a24565b50505050565b7fac07f8935ec1917231323fddd1f4dc70380f6438e069be20425bc8b66e5cd7ed8282604051808373ffffffffffffffffffffffffffffffffffffffff1673ffffffffffffffffffffffffffffffffffffffff16815260200180602001828103825283818151815260200191508051906020019080838360005b8381101561073757808201518184015260208101905061071c565b50505050905090810190601f1680156107645780820380516001836020036101000a031916815260200191505b50935050505060405180910390a15050565b816003808054905081548110151561078a57fe5b9060005260206000200190805190602001906107a7929190610a24565b50505050565b60606001826040518082805190602001908083835b6020831015156107e757805182526020820191506020810190506020830392506107c2565b6001836020036101000a03801982511681845116808217855250505050505090500191505090815260200160405180910390206002018054600181600116156101000203166002900480601f0160208091040260200160405190810160405280929190818152602001828054600181600116156101000203166002900480156108b15780601f10610886576101008083540402835291602001916108b1565b820191906000526020600020905b81548152906001019060200180831161089457829003601f168201915b50505050509050919050565b565b60606000803373ffffffffffffffffffffffffffffffffffffffff1673ffffffffffffffffffffffffffffffffffffffff1681526020019081526020016000206000018054600181600116156101000203166002900480601f0160208091040260200160405190810160405280929190818152602001828054600181600116156101000203166002900480156109965780601f1061096b57610100808354040283529160200191610996565b820191906000526020600020905b81548152906001019060200180831161097957829003601f168201915b50505050509050816001826040518082805190602001908083835b6020831015156109d657805182526020820191506020810190506020830392506109b1565b6001836020036101000a03801982511681845116808217855250505050505090500191505090815260200160405180910390206002019080519060200190610a1f929190610a24565b505050565b828054600181600116156101000203166002900490600052602060002090601f016020900481019282601f10610a6557805160ff1916838001178555610a93565b82800160010185558215610a93579182015b82811115610a92578251825591602001919060010190610a77565b5b509050610aa09190610aa4565b5090565b610ac691905b80821115610ac2576000816000905550600101610aaa565b5090565b9056fea165627a7a723058204f8fda631919b5f17ef138d925d22902e3de62e4130dc27107402059860597eb0029",
  "source": "pragma solidity ^0.5.0;\n\ncontract MyContract {\n    \n    struct Domain {\n        string name;   //域名名称\n        uint count;    //验证次数\n        string trustCAs;  //信任CA\n        uint stBlock;  //验证开始的区块\n        address[] validator;  //验证者列表\n        bool isEntity; // as a flag for existence\n    }\n    \n    mapping(address => Domain) reg_domain;  //待认证域名\n    mapping(string => Domain)  auth_domain; //已认证域名\n    mapping (address => uint) balances;     //余额\n    string[] verifing_domain;\n    mapping(string => uint) mapForId;\n    \n    \n    //some constant\n    uint constant auth_times = 10;\n    uint constant limit_blocks = 100; // the max num of blocks to complete the auth \n    uint constant reg_fee = 0;\n    uint constant verify_reward = 10;\n\n\tevent reg( address addr, string domainName );\n    \n    //register lets domains to register themself on blockchain.\n    function register(address addr, string memory domainName) public {\n        //init the var to register\n        /*reg_domain[addr].name = domainName;\n        reg_domain[addr].count = 0;\n        reg_domain[addr].trustCAs = \"\";\n        reg_domain[addr].stBlock = block.number;\n        reg_domain[addr].isEntity = true;\n        balances[msg.sender] -= reg_fee;*/\n        //msg.sender 全局变量，调用合约的发起方\n        //verifing_domain[verifing_domain.length] = domainName;\n\t\temit reg( addr, domainName );\n    }\n    \n    function report(address addr, string memory domainName, uint256 fakeVcode) public {\n        //get the register blockinfo of domain\n        //verify the sign of fakeVcode\n        //calculate the challege\n        //verify the mismatch of challenge and fakeVcode\n        reg_domain[addr].isEntity = false;\n        balances[msg.sender] += verify_reward/2;\n        balances[addr] -= reg_fee;\n        verifing_domain[verifing_domain.length] = domainName;\n\n    }\n    \n    function verify(address addr,string memory domainName, uint256 vcode) public {\n        //get the register blockinfo of domain\n        //calculate the challenge\n        //verify the vcode and update the progress of register\n        /*auth_times -= 1;\n        auth_domain[addr].name = domainName;\n        auth_domain[addr].stBlock = block.number;\n        auth_domain[addr].count += 1;\n        auth_domain[addr].validator[mapForId] = this.addr;\n        auth_domain[addr].isEntity = true;*/\n        verifing_domain[verifing_domain.length] = domainName;\n    }\n    \n    function modifyTrustedCAs(string memory CAs) public {\n        //check the progress of register\n        //check the right to modify \n        string memory name = reg_domain[msg.sender].name;\n        //if(keccak256(name) == keccak256(\"\") || !auth_domain[name].isEntity) {\n            //throw;\n        //}\n        //do action\n        auth_domain[name].trustCAs = CAs;\n    }\n    \n    function queryTrustedCAs(string memory domainName) public view returns( string memory ) {\n        //return the trustCAs of queried domain\n        return auth_domain[domainName].trustCAs;\n    }\n\n\tfunction Test() public {}\n}\n",
  "sourcePath": "/root/bitcoin/contract/contracts/contract.sol",
  "compiler": {
    "name": "solc",
    "version": "0.5.0+commit.1d4f565a.Emscripten.clang"
  },
  "schemaVersion": "3.0.3",
  "updatedAt": "2019-03-14T09:34:44.761Z",
  "devdoc": {
    "methods": {}
  },
  "userdoc": {
    "methods": {}
  }
}