{
  "contractName": "MyContract",
  "abi": [
    {
      "anonymous": false,
      "inputs": [
        {
          "indexed": false,
          "name": "addr",
          "type": "address"
        },
        {
          "indexed": false,
          "name": "domainName",
          "type": "string"
        }
      ],
      "name": "reg",
      "type": "event",
      "signature": "0xac07f8935ec1917231323fddd1f4dc70380f6438e069be20425bc8b66e5cd7ed"
    },
    {
      "constant": false,
      "inputs": [
        {
          "name": "addr",
          "type": "address"
        },
        {
          "name": "domainName",
          "type": "string"
        }
      ],
      "name": "register",
      "outputs": [],
      "payable": false,
      "stateMutability": "nonpayable",
      "type": "function",
      "signature": "0x32434a2e"
    },
    {
      "constant": false,
      "inputs": [
        {
          "name": "addr",
          "type": "address"
        },
        {
          "name": "domainName",
          "type": "string"
        },
        {
          "name": "fakeVcode",
          "type": "uint256"
        }
      ],
      "name": "report",
      "outputs": [],
      "payable": false,
      "stateMutability": "nonpayable",
      "type": "function",
      "signature": "0x24a74b9a"
    },
    {
      "constant": false,
      "inputs": [
        {
          "name": "addr",
          "type": "address"
        },
        {
          "name": "domainName",
          "type": "string"
        },
        {
          "name": "vcode",
          "type": "uint256"
        }
      ],
      "name": "verify",
      "outputs": [],
      "payable": false,
      "stateMutability": "nonpayable",
      "type": "function",
      "signature": "0x447cf3ad"
    },
    {
      "constant": false,
      "inputs": [
        {
          "name": "CAs",
          "type": "string"
        }
      ],
      "name": "modifyTrustedCAs",
      "outputs": [],
      "payable": false,
      "stateMutability": "nonpayable",
      "type": "function",
      "signature": "0xe29949b1"
    },
    {
      "constant": true,
      "inputs": [
        {
          "name": "domainName",
          "type": "string"
        }
      ],
      "name": "queryTrustedCAs",
      "outputs": [
        {
          "name": "",
          "type": "string"
        }
      ],
      "payable": false,
      "stateMutability": "view",
      "type": "function",
      "signature": "0x7c8c5bbf"
    }
  ],
  "bytecode": "0x608060405234801561001057600080fd5b50610cf4806100206000396000f3fe60806040526004361061006d576000357c0100000000000000000000000000000000000000000000000000000000900463ffffffff16806324a74b9a1461007257806332434a2e14610164578063447cf3ad1461024c5780637c8c5bbf1461033e578063e29949b11461047f575b600080fd5b34801561007e57600080fd5b506101626004803603606081101561009557600080fd5b81019080803573ffffffffffffffffffffffffffffffffffffffff169060200190929190803590602001906401000000008111156100d257600080fd5b8201836020820111156100e457600080fd5b8035906020019184600183028401116401000000008311171561010657600080fd5b91908080601f016020809104026020016040519081016040528093929190818152602001838380828437600081840152601f19601f82011690508083019250505050505050919291929080359060200190929190505050610547565b005b34801561017057600080fd5b5061024a6004803603604081101561018757600080fd5b81019080803573ffffffffffffffffffffffffffffffffffffffff169060200190929190803590602001906401000000008111156101c457600080fd5b8201836020820111156101d657600080fd5b803590602001918460018302840111640100000000831117156101f857600080fd5b91908080601f016020809104026020016040519081016040528093929190818152602001838380828437600081840152601f19601f820116905080830192505050505050509192919290505050610680565b005b34801561025857600080fd5b5061033c6004803603606081101561026f57600080fd5b81019080803573ffffffffffffffffffffffffffffffffffffffff169060200190929190803590602001906401000000008111156102ac57600080fd5b8201836020820111156102be57600080fd5b803590602001918460018302840111640100000000831117156102e057600080fd5b91908080601f016020809104026020016040519081016040528093929190818152602001838380828437600081840152601f19601f82011690508083019250505050505050919291929080359060200190929190505050610977565b005b34801561034a57600080fd5b506104046004803603602081101561036157600080fd5b810190808035906020019064010000000081111561037e57600080fd5b82018360208201111561039057600080fd5b803590602001918460018302840111640100000000831117156103b257600080fd5b91908080601f016020809104026020016040519081016040528093929190818152602001838380828437600081840152601f19601f8201169050808301925050505050505091929192905050506109ae565b6040518080602001828103825283818151815260200191508051906020019080838360005b83811015610444578082015181840152602081019050610429565b50505050905090810190601f1680156104715780820380516001836020036101000a031916815260200191505b509250505060405180910390f35b34801561048b57600080fd5b50610545600480360360208110156104a257600080fd5b81019080803590602001906401000000008111156104bf57600080fd5b8201836020820111156104d157600080fd5b803590602001918460018302840111640100000000831117156104f357600080fd5b91908080601f016020809104026020016040519081016040528093929190818152602001838380828437600081840152601f19601f820116905080830192505050505050509192919290505050610abe565b005b60008060008573ffffffffffffffffffffffffffffffffffffffff1673ffffffffffffffffffffffffffffffffffffffff16815260200190815260200160002060050160006101000a81548160ff0219169083151502179055506002600a8115156105ae57fe5b04600260003373ffffffffffffffffffffffffffffffffffffffff1673ffffffffffffffffffffffffffffffffffffffff168152602001908152602001600020600082825401925050819055506000600260008573ffffffffffffffffffffffffffffffffffffffff1673ffffffffffffffffffffffffffffffffffffffff16815260200190815260200160002060008282540392505081905550816003808054905081548110151561065d57fe5b90600052602060002001908051906020019061067a929190610c23565b50505050565b806000808473ffffffffffffffffffffffffffffffffffffffff1673ffffffffffffffffffffffffffffffffffffffff16815260200190815260200160002060000190805190602001906106d5929190610c23565b5060008060008473ffffffffffffffffffffffffffffffffffffffff1673ffffffffffffffffffffffffffffffffffffffff1681526020019081526020016000206001018190555060206040519081016040528060008152506000808473ffffffffffffffffffffffffffffffffffffffff1673ffffffffffffffffffffffffffffffffffffffff1681526020019081526020016000206002019080519060200190610782929190610c23565b50436000808473ffffffffffffffffffffffffffffffffffffffff1673ffffffffffffffffffffffffffffffffffffffff1681526020019081526020016000206003018190555060016000808473ffffffffffffffffffffffffffffffffffffffff1673ffffffffffffffffffffffffffffffffffffffff16815260200190815260200160002060050160006101000a81548160ff0219169083151502179055506000600260003373ffffffffffffffffffffffffffffffffffffffff1673ffffffffffffffffffffffffffffffffffffffff16815260200190815260200160002060008282540392505081905550806003808054905081548110151561088557fe5b9060005260206000200190805190602001906108a2929190610c23565b507fac07f8935ec1917231323fddd1f4dc70380f6438e069be20425bc8b66e5cd7ed8282604051808373ffffffffffffffffffffffffffffffffffffffff1673ffffffffffffffffffffffffffffffffffffffff16815260200180602001828103825283818151815260200191508051906020019080838360005b8381101561093857808201518184015260208101905061091d565b50505050905090810190601f1680156109655780820380516001836020036101000a031916815260200191505b50935050505060405180910390a15050565b816003808054905081548110151561098b57fe5b9060005260206000200190805190602001906109a8929190610c23565b50505050565b60606001826040518082805190602001908083835b6020831015156109e857805182526020820191506020810190506020830392506109c3565b6001836020036101000a03801982511681845116808217855250505050505090500191505090815260200160405180910390206002018054600181600116156101000203166002900480601f016020809104026020016040519081016040528092919081815260200182805460018160011615610100020316600290048015610ab25780601f10610a8757610100808354040283529160200191610ab2565b820191906000526020600020905b815481529060010190602001808311610a9557829003601f168201915b50505050509050919050565b60606000803373ffffffffffffffffffffffffffffffffffffffff1673ffffffffffffffffffffffffffffffffffffffff1681526020019081526020016000206000018054600181600116156101000203166002900480601f016020809104026020016040519081016040528092919081815260200182805460018160011615610100020316600290048015610b955780601f10610b6a57610100808354040283529160200191610b95565b820191906000526020600020905b815481529060010190602001808311610b7857829003601f168201915b50505050509050816001826040518082805190602001908083835b602083101515610bd55780518252602082019150602081019050602083039250610bb0565b6001836020036101000a03801982511681845116808217855250505050505090500191505090815260200160405180910390206002019080519060200190610c1e929190610c23565b505050565b828054600181600116156101000203166002900490600052602060002090601f016020900481019282601f10610c6457805160ff1916838001178555610c92565b82800160010185558215610c92579182015b82811115610c91578251825591602001919060010190610c76565b5b509050610c9f9190610ca3565b5090565b610cc591905b80821115610cc1576000816000905550600101610ca9565b5090565b9056fea165627a7a72305820c12ba514bfa1f0cc594440b9c461cf33786da21d7f4eb0b5facc38ffbde8b4490029",
  "source": "pragma solidity ^0.5.0;\n\ncontract MyContract {\n    \n    struct Domain {\n        string name;   //域名名称\n        uint count;    //验证次数\n        string trustCAs;  //信任CA\n        uint stBlock;  //验证开始的区块\n        address[] validator;  //验证者列表\n        bool isEntity; // as a flag for existence\n    }\n    \n    mapping(address => Domain) reg_domain;  //待认证域名\n    mapping(string => Domain)  auth_domain; //已认证域名\n    mapping (address => uint) balances;     //余额\n    string[] verifing_domain;\n    mapping(string => uint) mapForId;\n    \n    \n    //some constant\n    uint constant auth_times = 10;\n    uint constant limit_blocks = 100; // the max num of blocks to complete the auth \n    uint constant reg_fee = 0;\n    uint constant verify_reward = 10;\n\n\tevent reg( address addr, string domainName );\n    \n    //register lets domains to register themself on blockchain.\n    function register(address addr, string memory domainName) public {\n        //init the var to register\n        reg_domain[addr].name = domainName;\n        reg_domain[addr].count = 0;\n        reg_domain[addr].trustCAs = \"\";\n        reg_domain[addr].stBlock = block.number;\n        reg_domain[addr].isEntity = true;\n        balances[msg.sender] -= reg_fee;\n        //msg.sender 全局变量，调用合约的发起方\n        verifing_domain[verifing_domain.length] = domainName;\n\t\temit reg( addr, domainName );\n    }\n    \n    function report(address addr, string memory domainName, uint256 fakeVcode) public {\n        //get the register blockinfo of domain\n        //verify the sign of fakeVcode\n        //calculate the challege\n        //verify the mismatch of challenge and fakeVcode\n        reg_domain[addr].isEntity = false;\n        balances[msg.sender] += verify_reward/2;\n        balances[addr] -= reg_fee;\n        verifing_domain[verifing_domain.length] = domainName;\n\n    }\n    \n    function verify(address addr,string memory domainName, uint256 vcode) public {\n        //get the register blockinfo of domain\n        //calculate the challenge\n        //verify the vcode and update the progress of register\n        /*auth_times -= 1;\n        auth_domain[addr].name = domainName;\n        auth_domain[addr].stBlock = block.number;\n        auth_domain[addr].count += 1;\n        auth_domain[addr].validator[mapForId] = this.addr;\n        auth_domain[addr].isEntity = true;*/\n        verifing_domain[verifing_domain.length] = domainName;\n    }\n    \n    function modifyTrustedCAs(string memory CAs) public {\n        //check the progress of register\n        //check the right to modify \n        string memory name = reg_domain[msg.sender].name;\n        //if(keccak256(name) == keccak256(\"\") || !auth_domain[name].isEntity) {\n            //throw;\n        //}\n        //do action\n        auth_domain[name].trustCAs = CAs;\n    }\n    \n    function queryTrustedCAs(string memory domainName) public view returns( string memory ) {\n        //return the trustCAs of queried domain\n        return auth_domain[domainName].trustCAs;\n    }\n}\n",
  "sourcePath": "/root/bitcoin/contract/contracts/contract.sol",
  "compiler": {
    "name": "solc",
    "version": "0.5.0+commit.1d4f565a.Emscripten.clang"
  },
  "schemaVersion": "3.0.3",
  "updatedAt": "2019-03-14T08:17:12.605Z",
  "devdoc": {
    "methods": {}
  },
  "userdoc": {
    "methods": {}
  }
}